S01B00004932435F554152545F636F6E76657274696F6E2E737265630A
S11300000C945A000C9477000C9477000C947700AD
S11300100C9477000C9477000C9477000C94770080
S11300200C9477000C9477000C9477000C94770070
S11300300C9477000C9477000C9477000C94770060
S11300400C9477000C9477000C94F6000C947700D1
S11300500C9477000C9477000C9477000C94770040
S11300600C9421010C9477000C9477000C94770085
S11300700C9477000C9477000C9477000C94770020
S11300800C9477000C9477000C9477000C94770010
S11300900C9477000C9477000C9477000C94770000
S11300A00C9477000C9477000C9477000C947700F0
S11300B00C94770011241FBECFEFD8E0DEBFCDBF74
S11300C011E0A0E0B1E0ECE7F3E002C005900D928E
S11300D0A230B107D9F721E0A2E0B1E001C01D923E
S11300E0A732B207E1F70E94D4000C94BC010C942F
S11300F00000880F81608093BA00ECEBF0E084E0AC
S113010080838FE39CE90197F1F700C000007894A5
S113011085EC808308951092C0008093C40088E920
S11301208093C10086E08093C20078940895E0EC47
S1130130F0E0908195FFFDCF8093C60008950F9362
S11301401F93CF93DF93EC018C01085F1F4F8991BC
S11301500E949700C017D107D1F7DF91CF911F916B
S11301600F910895259A20988AB18AB908954D99D6
S113017005C0809100018F5F809300014E9905C0F6
S1130180809100018E5F809300014F9905C080919A
S113019000018C5F80930001189905C080910001D3
S11301A0885F8093000108950E94B200259A0E94FE
S11301B0B70087E690E00E948B00809100010E94C6
S11301C07900C8E080910401811102C00000FACFD7
S11301D01092040186E091E00E949F00E6E0F1E0C5
S11301E0DF018C2F1D928A95E9F7ECCF1F920F92B5
S11301F00FB60F9211242F938F939F93EF93FF9336
S113020080910201909103012091C600FC01E25FFC
S1130210FE4F208301968931910529F090930301C3
S11302208093020104C01092030110920201FF9115
S1130230EF919F918F912F910F900FBE0F901F9070
S113024018951F920F920FB60F9211248F939F93BC
S1130250EF93FF938091B900803909F45FC090F463
S1130260803709F455C038F4882309F475C0803602
S113027009F44EC075C0803809F450C0883809F4B8
S11302806BC06EC0883A81F038F4883909F464C0D0
S1130290803A09F458C064C0803CB1F1883C09F448
S11302A05BC0883BA9F05CC01092050180910E01EF
S11302B08093BB0080910501E82FF0E0E25FFE4FE0
S11302C010828F5F8093050185EC8093BC004BC046
S11302D0E0910501F0E0E25FFE4F80818093BB0076
S11302E080910501E82FF0E0E25FFE4F10828F5FFE
S11302F080930501893120F485EC8093BC0033C0E0
S113030085E88093BC002FC085EC8093BC002BC093
S11303101092050185EC8093BC0025C080910501F5
S1130320883018F0109205010AC09091BB00E82FA4
S1130330F0E0EA5FFE4F90838F5F8093050185ECC8
S11303408093BC0010C085EC8093BC001092050122
S113035081E08093040107C080E98093BC0003C05E
S113036085EC8093BC00FF91EF919F918F910F904A
S10F03700FBE0F901F901895F894FFCF5B
S105037C140067
S9030000FC
